:100000002CC1000047C1000045C1000043C10000F1
:1000100041C100003FC100003DC100003BC10000E4
:1000200039C1000037C100000C945D1D0C94291EDD
:100030000C9462172FC100002DC100002BC10000DD
:1000400029C1000027C1000025C1000023C1000014
:1000500021C100000C94D9171DC100001BC1000074
:1000600019C1000017C1000015C1000013C1000034
:1000700011C100000FC100000DC100000BC1000044
:1000800009C1000007C1000005C1000003C1000054
:1000900001C10000FFC00000FDC00000FBC0000067
:1000A000F9C00000F7C00000F5C00000B200B400C5
:1000B000B900BF00A900AA0059005A005B0000AEB9
:1000C00000AF00DA0281FFD9F1DB20A4A62EAF0039
:1000D000A0C0D30000A1C8D30000AED580A81F40A7
:1000E0008D142000140362006F0072006E006F0018
:1000F0005F007000610064000000120348006900A6
:100100006D00610064006400720069000000040377
:10011000090409023B00020100A0FA0904000001E1
:10012000030101000921110100012244000705819A
:100130000308000109040100010300000009211166
:1001400001000122B6000705820320000112010010
:100150000200000008EDFE000000010102000105A0
:10016000010902A10185020901A10005091901295E
:10017000081500250195087501810205010930095E
:10018000311581257F95027508810609381581256D
:100190007F950175088106050C0A38021581257FB7
:1001A000950175088106C0C005010980A10185037C
:1001B00019012AB700150126B700950175108100B5
:1001C000C0050C0901A101850419012AA00215012D
:1001D00026A002950175108100C005010906A10144
:1001E0008506050719E029E7150025019508750121
:1001F00081020507190029EF1500250195F0750109
:1002000081020508190129059505750191029501DD
:1002100075039101C005010906A101050719E0292F
:10022000E715002501950875018102950175088182
:10023000010507190029FF150026FF00950675081E
:10024000810005081901290515002501950575018D
:100250009102950175039101C00011241FBECFEFDB
:10026000DAE0DEBFCDBF11E0A0E0B1E0EEE8F1E4FE
:1002700002C005900D92AC39B107D9F724E0ACE982
:10028000B1E001C01D92AD3BB207E1F70E942C0F17
:100290000C947320B5CE811115C0633098F44330AF
:1002A00088F470E0FB01EE0FFF1FE60FF71FE40F6D
:1002B000F11DEE0FFF1FE455FF4F85919491282FFC
:1002C000822F089521E090E0FBCFE5CF089581E0F3
:1002D000089581E00895FBCF089581E0089581E0BD
:1002E000089581E00895FDCF089508950895FDCF04
:1002F000089508950895A6E0B0E0E1E8F1E00C94D7
:10030000FA1F49835A839E833091A30189819A8180
:10031000311117C03E81311589F0211579F02AD5A8
:10032000182F682F89819A81FFD469817A81812F62
:100330000E94AA0C2696E3E00C94162008D5182FEC
:10034000F4CF18D569817A81F3CFFC01262F408143
:1003500051816281738184819581CDCFCF93DF9369
:10036000EC0161E0F2DFBE01B4DF811529F061E04C
:10037000CE01EBDFBE01AFDFDF91CF9108950F9388
:100380001F93CF93DF93EC0160E0DFDF8C01BE01B0
:10039000ADDFBE01C801ABDFDF91CF911F910F919F
:1003A000089521E030E002C0220F331F8A95E2F762
:1003B000C901F5C3CF93C82F81E090E00C2E02C095
:1003C000880F991F0A94E2F70E94D90A8C2FE9DF5F
:1003D000CF91089581E0089581E00895FBCF0895BD
:1003E000CF93C82F8BD38C2FF7DF8C2FF7DF8FEFB6
:1003F00094E32CE0815090402040E1F700C00000E1
:10040000CF91089581E0ECDF0C94FD1780E0E8DFE8
:100410000C940E180F931F93CF93DF938C0161E020
:1004200094DFEC01B8015BDF811509F43FC0B8012E
:10043000CE0159DF8115D1F1B801CE010E94E61439
:100440008115A1F1B801CE010E946011811571F1F1
:10045000B801CE010E943911811541F1B801CE01D8
:100460000E94AB0D811511F1F8018581811581F094
:10047000CA358CE7D80721F170F4C1308CE7D80772
:10048000E9F0C3308CE7D807B9F0C115DC4769F053
:10049000C80123DF0CC0CB358CE7D807A1F0CC35E1
:1004A000DC47B1F70E949D0AF3CFACDF80E0DF911B
:1004B000CF911F910F9108950E94D10AA7DFF6CF27
:1004C0000E94A40AE5CF0E94A60AE2CF12DF0E9492
:1004D0003A1719D00C94DC1018D00CDF0C943E178E
:1004E00081E008950895CF93DF93C82FF9DFD82FC7
:1004F000811511F08C2FF6DF8D2FDF91CF910895AC
:100500000895F1CF089580E0FCCF0E943215F9CF15
:10051000CF930E943215C82F80919E018C1771F0E5
:10052000C0939E010E94CD1760939F017093A0011C
:100530008093A1019093A2018C2FE3DFCF910895C6
:10054000ADE0B0E0E6EAF2E00C94FB1F4887598783
:100550006A877B878C879D8791111AD71F8286E0D7
:10056000FE0138969E012F5F3F4FD90101900D92F9
:100570008A95E1F78D8181110CC029813A814B81E7
:100580005C816D817E818F814ED62D96E2E00C9448
:100590001720CE010196E2DE8111EFCFF6CFFC01EC
:1005A0002481213019F48081918117C40895611547
:1005B00021F00E94B9120C946E130E94F912FBCF25
:1005C000CF93C82F811581F08450813A78F48C2F15
:1005D0000E94E615811521F08C2F0E94831663D7A7
:1005E0008C2F0E946C165FD7CF9108958C2F805E60
:1005F000883048F481E0C1FD84E0C0FD880FC2FD71
:100600008295A7D6F0CF8C2F855A833030F48C2F6B
:100610008452990B0E947215E7CFEC2FE85AEB3108
:1006200050F4F0E0EE0FFF1FEF5DFE4F80819181EF
:100630000E949915D9CF8C2F8D5C8331A8F661E08B
:100640008C2FB5DFD1CF811559F1982F9450913A65
:1006500018F40E94831627C7982F905E983050F4A4
:10066000982F81E091FD84E090FD880F92FD8295A6
:1006700076D6F1CF982F955A933020F480E090E011
:100680000C947215982F985A9B3120F480E090E0DA
:100690000C949915982F9D5C933110F460E087CFEE
:1006A00008951F93CF93DF93182FEB0189DF2097D5
:1006B00031F4812FC8DFDF91CF911F9108958FE929
:1006C0009FE00197F1F700C000002197F0CF60E5AF
:1006D00070E0893311F060E070E0E3CF811511F034
:1006E00038D6E1C60895811511F039D6DCC60895D3
:1006F000A0E0B0E0EEE7F3E00C94F51F6C01D62F1C
:10070000C72FFC011581068102950F7017D6E82EC0
:100710008115E9F0E12E1115D1F08C2F807F803406
:1007200061F08D2F805E8830E0F08C2F807E8032EB
:1007300021F4D230B0F00115A1F080919F0282FF28
:1007400010C082E0D4D6FAD591E08927E82EEC2FAC
:10075000E295EF70C03C78F5F0E0EB58FF4D0C945B
:10076000E51FE12CF4CF0C2F0F70C03110F0029573
:10077000007F111581F0011549F08D2F805E8830C2
:1007800010F0D11105C0802FE4D58DD68D2F40C03B
:10079000802FF0D5FACF8D2F56DF011561F08D2F08
:1007A000805E883010F0D11103C0802FD8D502C0F0
:1007B000802FE6D578D6E11409F4B3C0BBD580FD0F
:1007C000B0C0F6011582B0D51AD2C60168D1ACD539
:1007D00024D2A7C08C2F8F70F82EC07FC03219F0A2
:1007E000F29480EFF822D13038F079F1111509F444
:1007F00038C00115C9F0CACF80919F0282FD10C098
:10080000111541F0F11419F08F2DA3D54CD680E0CD
:10081000D7DED1CF80E017DFF11469F28F2DC6CF7C
:10082000111551F0013018F48F2D58DFC4CF09F0A5
:10083000C2CF8F2DC1D5BFCF0111BDCF8F2D53DFBB
:100840008F2DC5D58F2DAAD5B6CF111521F0063025
:1008500008F0B1CFE9CF053008F0ADCF8F2D43DFE1
:10086000AACF0115D9F3D93349F48FEF97EE23E0DE
:10087000815090402040E1F700C000008D2FE3DE62
:100880009ACF8C2F869586958370813060F009F021
:1008900092CF8D2F9C2F9370111102C080E090E0B9
:1008A0000E94991588CF8D2F9C2F9370111102C033
:1008B00080E090E00E9472157ECF612F8D2F77DE51
:1008C0007ACF8C2F8370C1F5111128C04D2F42951E
:1008D00046954770440F440F2D2F2F7030E0042EA3
:1008E00002C0220F331F0A94E2F780E090E0D4FFA9
:1008F00009C08FE090E002C0880F991F4A95E2F787
:1009000080959095C695C695C370822B932BC23067
:1009100079F0C33079F0C13049F04AD10E943215E4
:10092000F0DDCDB7DEB7E8E00C9411203AD1F6CF78
:1009300046D1F4CF34D1F2CF111559F1C0FFEECF2B
:100940004D2F429546954770440F440F2D2F2F7021
:1009500030E0042E02C0220F331F0A94E2F780E039
:1009600090E0D4FF09C08FE090E002C0880F991F8B
:100970004A95E2F780959095C695C695C370822BEF
:10098000932BC23061F0C33061F0C13031F06AD1D5
:10099000C5CF823008F4C2CFD3CF5DD1BFCF69D1EC
:1009A000BDCF1AD1BBCFCF70111529F08C2F27D115
:1009B0008D2F94DEB3CF8D2F96DE8C2F2ED1AECF20
:1009C000D23F31F168F4D03FC1F0D13F89F0111529
:1009D00009F43EC0011509F438C08D2FF1DD9ECF1A
:1009E000D33FE1F0D43F99F780919F0282FD1EC072
:1009F0008C2F8F71111511F30FC0111539F00530BF
:100A000008F08CCF8C2F8F7118D188CF0630F8CF9B
:100A10008C2F8F711111D2CFF2D080CF111521F010
:100A20008C2F8F71E3D07ACFDED078CF111529F0DB
:100A300063E08C2F8F7144D571CF81E058D502309F
:100A400008F46CCF82E053D569CF8C2F8F71E4CF3F
:100A5000011571F0D93349F48FEF97EE23E08150FF
:100A600090402040E1F700C000008D2FECDD56CF14
:100A70008C2F8F71A3CF0F931F93CF93DF93EC0134
:100A8000688179818D81B2D18C01FAD087D0B8018B
:100A9000CE012EDEDF91CF911F910F910895CF935C
:100AA000DF93EC018C81811581F0CE01B3DC8111E3
:100AB0000FC044D4811549F08D81811531F08091AA
:100AC0009F0282FF02C082E012D5DF91CF9108958C
:100AD000CE01D1DFCE0153DCF8CF80E090E00E9460
:100AE000721580E090E00E94991552D4DCD40E94E7
:100AF00087130C946E130E949A16EFCF38D4FBCF55
:100B0000282F92959F70963099F060F4925F9F70B5
:100B1000923030F4203FB1F038F481E0283E38F0D4
:100B200080E008959A5FF3CF81E0243FC9F70895EC
:100B300091E0813F09F090E081E0283E08F080E0FC
:100B4000892B089581E00895FC012481211521F06D
:100B50008081918142D1D4CF80E00895A6E0B0E0B9
:100B6000E4EBF5E00C94FB1F2696E2E00C941720D2
:100B7000A7E0B0E0EEEBF5E00C94FB1F2796E2E077
:100B80000C9417200895FECF0895FDCF0895FADF45
:100B9000FCDF8093AE019093AF0108950895F7CFE5
:100BA00008952091AE013091AF01822B932BEFCFAE
:100BB0002091AE013091AF0182239323E8CF2091A1
:100BC000AE013091AF0182279327E1CFDBCF0895AB
:100BD000FDCF0895D7CF0895FDDFFADF8093AC01F4
:100BE0009093AD01089580E090E0F6CF21E030E0F1
:100BF00002C0220F331F8A95E2F7C901EDCF21E031
:100C000030E002C0220F331F8A95E2F78091AC01D9
:100C10009091AD01822B932BDFCF21E030E002C019
:100C2000220F331F8A95E2F7209530958091AC0111
:100C30009091AD0182239323CFCF21E030E002C019
:100C4000220F331F8A95E2F78091AC019091AD019C
:100C500082279327C1CF2091AC013091AD01822B27
:100C6000932BBACF2091AC013091AD018223932315
:100C7000B3CF2091AC013091AD0182279327ACCF47
:100C80000895CF93C1E061FDC4E060FDCC0F62FD2B
:100C9000C29593E0769567959A95E1F7660F771F71
:100CA000660F771F460F571FFA0140E050E090E0B3
:100CB0006191DF019C01042E02C0369527950A94AC
:100CC000E2F72695220B26272C2326272E934F5F0B
:100CD0005F4F4430510561F7CF910895A82FA77059
:100CE00023E0969587952A95E1F7880F991F880F3D
:100CF000991F680F791FFB0140E050E080E02191CF
:100D000030E00A2E02C0369527950A94E2F721704A
:100D1000042E01C0220F0A94EAF7822B4F5F5F4F27
:100D20004430510561F70895E62F933078F483300D
:100D300068F4292F30E0B901660F771F620F731F27
:100D4000680F711D44EA51E08E2F9BCF08959330B8
:100D500078F4833068F4292F30E0A901440F551F3F
:100D6000240F351F64EA71E0820F932F911DB6CFD7
:100D700080E00895CF92DF92FF920F931F93CF935D
:100D8000DF936C010091AC011091AD018091AE0137
:100D90009091AF01082B192BCFE0D0E081E090E0DB
:100DA0000C2E02C0880F991F0A94E2F7802391232A
:100DB000892B61F4219790F7F12C8F2DDF91CF9142
:100DC0001F910F91FF90DF90CF900895FC2EB601F8
:100DD0008C2FCBD5019771F3F0CFCF93DF93EC013C
:100DE000C9DFBE01C2D5DF91CF9108950F931F9344
:100DF000CF938B019091A301911531F0CB01EDDFE1
:100E0000CF911F910F910895811551F0CB01B2DF61
:100E1000C82F682FC80188DFB8018C2FA6D5F0CF66
:100E2000CB0195DFC82FF8CF0F931F930091B0012E
:100E30008091B101801303C01F910F91089587E045
:100E4000089FF0011124EE54FE4F20813181428130
:100E500053816481758186818BDE0F5F1F4F077020
:100E6000E7CF2091EA013091EB014091EC015091E4
:100E7000ED016091EE017091EF018091F00178CE6B
:100E80008091F001803170F48091EF01811551F073
:100E9000E091B0012091B1013091EB014091EA0164
:100EA0002E1301C00895BF0187E0E89FF0011124CF
:100EB000DF01AE54BE4F14968C911497811549F101
:100EC00011968C911197831324C08C91841321C0A7
:100ED00015968C91159781111CC012968D919D913C
:100EE000A091EC01B091ED018A1B9B0B883C910510
:100EF00080F48091F0018F7080618093F001E8545C
:100F0000FE4F80818F70806180838AEE91E0C7DD23
:100F10008BCF6F5F7F4FFB01E770C2CFE091B001D5
:100F20009091B101E91302C080E008959F0157E05C
:100F3000E59FF0011124EE54FE4F5181561306C077
:100F40005081581303C05581541305C02F5F3F4F84
:100F5000F901E770E7CF81E008958F929F92AF92F9
:100F6000BF92DF92EF92FF920F931F93CF93DF9385
:100F7000CDB7DEB72D970FB6F894DEBF0FBECDBF4D
:100F80008C0186E0F801DE01189601900D928A9599
:100F9000E1F7F801F58084819AEE892E91E0992E8F
:100FA0009091EE01911117C0811509F4EFC0F11471
:100FB00009F42EC1C801C8DD811509F429C187E0F3
:100FC000F801D40101900D928A95E1F7C401E7DAA6
:100FD00057DF47DFDBC0E080A280B380D090EF0115
:100FE0002091EC013091ED01A501421B530BD1146E
:100FF00009F4CFC0483C510508F09EC0811509F4A2
:10100000C5C09091EB0191808091F001803108F092
:1010100065C0991226C09091EA019E1122C0F1107C
:1010200057C08F7080618093F0011BDF8AEE91E0E2
:1010300036DD8091F001F8018683F12C8F2D2D96FD
:101040000FB6F894DEBF0FBECDBFDF91CF911F91D9
:101050000F91FF90EF90DF90BF90AF909F908F9097
:101060000895F11035C040E0692D8E2D57DF40E026
:10107000692D8E2D53DFF82E8111DFCF888599855C
:10108000ACDE292F22952F70903450F49F702230BF
:1010900078F0911591F0F8019681903170F4CECFEF
:1010A0002A5F2F70223070F0C801F9DCFD2CC6CF0A
:1010B000911519F0811509F4C1CF805E883008F4CC
:1010C000BDCFF2CF803F08F4B9CF815F8330F7CF37
:1010D0008091F00181608093F001AFCF991207C039
:1010E0009091EA019E1103C0F11409F473C0C80184
:1010F0002BDD811509F48CC0F11409F489C08091AD
:10110000F001803280F02091EA013091EB012983D7
:101110003A83AB82BC829091EE019D831E828F83C5
:10112000CE010196BCDC87E0F801AAEEB1E00190A7
:101130000D928A95E1F74CCF9091F001903188F4AF
:10114000488559856A857B858C859D8507DD8AEE76
:1011500091E0A5DCF40187E011928A95E9F781DE40
:101160006CCF811599F02091EB0181812813BFCFBD
:101170008091EA018E11BBCFF110B9CF9683C801DF
:101180008EDCF40187E011928A95E9F7FF24F3944D
:1011900055CF483C510508F03EC08115B9F3F11414
:1011A000B9F19091EB018181981329C08091EA01F6
:1011B0008E1125C08091F00180FD18C08031B0F003
:1011C0008683807F803F39F08681982F907F905F63
:1011D0008F70892B8683C80162DC87E0F801AAEE54
:1011E000B1E001900D928A95E1F7F3CE87E0F80126
:1011F000AAEEB1E001900D928A95E1F7C7CFC80140
:10120000A3DC811190CF8091F00181608093F00187
:10121000C80145DCBBCF488559856A857B858C85AF
:101220009D859CDC97CFAEE0B0E0E9E1F9E00C945D
:10123000FA1F288739874A875B876C877D878E8767
:10124000CE0108968ADE6C85811599F0611539F01A
:10125000288539854A855B857D858E8589DC8091E9
:10126000B0019091B10189133DC02E96E3E00C943A
:10127000162087E09E01285F3F4FF9012750310972
:10128000D90101900D928A95E1F7611541F3A09182
:10129000B1018A2F90E08395877090E0AC01209196
:1012A000B0012417150691F097E09A9FD001112400
:1012B000AE54BE4F9E012F5F3F4FF90101900D923A
:1012C0009A95E1F74093B101AFDDC9CF17DC1092D9
:1012D000B1011092B001EAEEF1E087E011928A9537
:1012E000E9F7BDCF17E0189FC00111248E549E4F1F
:1012F00034DE811509F4B9CFE091B0011E9FF001F1
:101300001124EE54FE4F208131814281538164814A
:10131000758186812DDC8091B0019091B10101969B
:1013200087708093B0019BCF809119028695869536
:1013300086950895809119028770089590911902F9
:10134000977081E0911101C080E00895809145027D
:10135000089590914502982B9093450208958095A9
:10136000982F809145028923809345020895109219
:101370004502089590914402982B90934402089559
:101380008095982F80914402892380934402089588
:101390001092440208950895FECF089590911A0284
:1013A000292F282329F08095892380931A02F4CFCE
:1013B00008950895FECF089590911B02292F2823A8
:1013C000281721F0982B90931B02F4CF0895909149
:1013D0001B02292F282329F08095892380931B0243
:1013E000E9CF089580911B02811521F010921B0214
:1013F00080E0E0CF0895CF93C091450280914402F0
:10140000C82B80911B02811529F0C82B0E94C015A2
:101410008111E8DF8C2FCF910895CF93DF93C09196
:101420000201D0910301E7DF8883C0910201D091CE
:10143000030148E050E061E172E0CE010E94222009
:10144000892B59F088E0FE01A1E1B2E001900D92F4
:101450008A95E1F7CE010E944115DF91CF91089561
:10146000CF93DF93C0910001D0910101C4DF898344
:10147000C0910001D091010140E250E061EF71E0C4
:10148000CE010E942220892B59F080E2FE01A1EFBB
:10149000B1E001900D928A95E1F7CE010E944E15C0
:1014A000DF91CF9108950E942B15811529F080912D
:1014B0009E0287FF01C0D4CFB0CF0895FECF08951C
:1014C00090919F0292FF0EC0982F990F990F990F3C
:1014D000962B9093190293DB80911902869586953D
:1014E0008695ECCF8CCB1092190280E0E7CF9091DB
:1014F00019028095892380931902282F277059F4A7
:10150000891749F090919F0292FF05C086958695B4
:10151000869583DBE8CF089590919F0292FB222766
:1015200020F9281749F080FB92F990939F028EE9E9
:1015300092E043D082E0DBCF089580919F020024A7
:1015400082FF0394802DE8CF81E0E6CF80E0E4CFF6
:1015500080E090E0BC015EC380E090E0BC0154D329
:10156000F7CFA3E0B0E0E7EBFAE00C94FB1F05D364
:1015700010D31B82CE01039623D381E090E08093A9
:10158000AE011092AF0128D3198284E18A83CE0183
:10159000019633D3E1DF2396E2E00C941720E1CFEC
:1015A0000895FDC20895EAC20895FFC208950EC3CA
:1015B000089512C3089515C308951FC3089530C335
:1015C0000895A6E0B0E0E7EEFAE00C94F91F0E945F
:1015D000C1178C01809146029091470280179107B4
:1015E00079F019821A820E94C117BC0149815A817F
:1015F00080E090E00E94A002009346021093470210
:101600002696E4E00C9415200E94CD1760934F02BB
:1016100070935002809351029093520260934B0258
:1016200070934C0280934D0290934E02089508955A
:101630000895FDCF08950895FEDFFBCF0895FECFF6
:1016400008950895FEDFFBCF89EA9DE016D4F0DF10
:10165000F3CF81E0089581E00895FBCF08950895C8
:1016600008950895FCDFFCDFFCCF9DDF811101C0F0
:1016700096DF83E592E099DF8EE992E09CDFF7D573
:1016800096DF8DDA8091AC019091AD01A1CA0E94E4
:10169000B8175CD3EADF0E94800280E038D4D2CF52
:1016A000A6E0B0E0E6E5FBE00C94F31FD4DF811187
:1016B0000AC087DFA1D50E94A8130E94880226963F
:1016C000EAE00C940F2052D388E4A82E82E0B82ED2
:1016D000750110E0F7010081812FADD21F5F13303B
:1016E00009F440C09FEFE91AF90A081799F38091AD
:1016F000530281FDA6D2B1DFC82E10E0812F9BD20C
:10170000082FF50181915F01081729F18027D82E54
:10171000EE24E394F12C8E2D8D21B1F0C114A1F0B3
:10172000F9821A830E94C1178B839C8381E08D8389
:1017300091E08E2D802309F490E049815A816B81DC
:101740007C818D810E94A002F394EE0C8F2D83305A
:1017500011F7F50102931F5F133081F655DF4CD569
:1017600030D4A9CF0813C3CFA4CF0F931F93CF9327
:10177000DF93FDD0EC01D23508F050C0D03508F031
:10178000C8C0C03ED10530F5CD3CD10508F09DC0A4
:10179000C83AD10578F4C53AD10508F093C0C130F4
:1017A000D105B1F1CE010497813A910588F1C0E0ED
:1017B000D0E02EC0CE01885A91094B97C0F7C85A85
:1017C000D0E0CC0FDD1FC95ADE4F0990D881C02D63
:1017D000D4641EC0D034A8F4D03208F0ADC0C83EE6
:1017E000D105B0F0CE0191509F3108F78D2F62D115
:1017F000082F8C2F90E0BBD0D02FDF71C82FD92BB2
:1018000007C08C2F90E0B3D0DF70C82FD92BD06ADF
:10181000CE01DF91CF911F910F910895C03882E5DD
:10182000D807B8F5C03682E5D80708F056C0C034EE
:1018300082E5D807C8F4C03282E5D80708F047C06F
:101840008C2F8695869520E2829FC0011124C3705B
:1018500021E030E002C0220F331FCA95E2F7E90110
:10186000C82BD92BDD68D4CF8C2F869586958770B1
:1018700020E2829FC0011124C37021E030E002C049
:10188000220F331FCA95E2F7E901C82BD92BDC6878
:10189000BFCFC03C82E5D80750F48C2F8F71C03A7F
:1018A000D24580F5982F84EF906AEC01B1CFCE013C
:1018B000805C9245809708F07ACFDC2FDF71C0EF13
:1018C000D06AA6CFA497D064A3CFD065A1CF8C2F28
:1018D0008F71D82FC1EFD06A9BCF8C2F86958695BC
:1018E000877020E2829FC0011124C37021E030E0A4
:1018F00002C0220F331FCA95E2F7E901C82BD92B8A
:10190000DA6886CFD7D0982F80E09F71EC01D06243
:101910007FCF8C2F8F71CED053E0CC0FDD1F5A9527
:10192000E1F7DF70282F84FF04C090E1899F9001C8
:101930001124C22FD0696CCF8D2F8F71BBD0082F8F
:101940008C2F90E014D0302F3F71282F392B30622C
:10195000E9015ECF462F733028F4633018F4672F07
:101960000C94650180E090E00895F4DFFECE803EA7
:101970009105D1F1C8F48133910509F481C048F48F
:101980008932910509F471C08A32910509F47FC04A
:10199000089589339105E1F082389105C9F08533C6
:1019A000910509F45DC00895843E9105D1F148F494
:1019B000823E910531F1833E910541F181EE90E047
:1019C0000895863E9105C1F1873E9105F1F1089594
:1019D00020919E02237009F064C020919F0223FF92
:1019E00014C089E290E0089520919E0220FD45C038
:1019F00030919F0230FF09C024FD24C083EE90E0A7
:101A0000089520919E0222FDF7CF089520919E0215
:101A100022FD44C030919F0230FD43C024FFF5CF2A
:101A200011C020919F0221FFF0CF80919E0284FD82
:101A300009C087EE90E0089520919E0223FFE5CF34
:101A400024FFF7CF80E090E0089520919E0223FDCF
:101A50002BC030919F0231FFE1CF84EE90E00895DA
:101A600020919E0225FFD1CFBCCF20919E0225FD63
:101A70001EC020919F0223FFC8CF89E390E0089504
:101A800020919E0226FFC1CF8AE290E00895209126
:101A90009E0226FFBACF81E390E0089582EE90E0A7
:101AA000089580EE90E0089586EE90E0089585E335
:101AB00090E0089590919E0292FF10C041E0282F7F
:101AC0002471243009F040E031E0282F28712830BB
:101AD00009F030E0431711F02CE0822793FF10C08B
:101AE00041E0282F2471243109F040E031E0282F13
:101AF0002871283109F030E0431711F02CE08227DB
:101B000030919F0230FF10C051E0282F2171213009
:101B100009F050E041E0282F2871283009F040E01A
:101B2000541711F029E0822731FF10C041E0282F1F
:101B30002171213109F040E031E0282F287128314E
:101B400009F030E0431711F029E0822794FD877EE9
:101B5000089580E00895CF939C01205E3245C1E056
:101B60002032310538F4FB01C581C11103C08F71EA
:101B70000E94DA018C2FCF910895089580E090E0C3
:101B80000E9440209C0181E0233E3E4F09F080E00E
:101B9000089563EE7EEF80E090E00C945F206FEF9D
:101BA0007FEF80E090E00C945F20CF93DF93EC0117
:101BB00082E090E00E9438208883DF91CF910895E1
:101BC000FC01608182E090E00C94452083E090E08D
:101BD0000E94382090E00895682F83E090E00C94F4
:101BE0004520CF93DF93EC0184E090E00E944020F9
:101BF00088839983DF91CF910895FC016081718181
:101C000084E090E00C945F20AB01BC018FE090E099
:101C10000C945720AB01BC0183E190E00C94572059
:101C2000682F8EE090E00C9445200895FECF089533
:101C30000895FECF0895E82FF0E0ED55FD4F808127
:101C40000895089580EA8A95F1F7089500C00895EF
:101C5000F9CF0895F894E82FE295EF70F0E041A1F4
:101C60008F7021E001C0220F8A95EAF7922F90959C
:101C7000942391A392A1822F892B82A37894089513
:101C800086ECE8DF84E3E6DF85E3E4DF84E9E2DF96
:101C900086E6E0DF87E9DECFA0E0B0E0E2E5FEE047
:101CA0000C94F51F6C01E62EC62FD0E08E01005774
:101CB0001E4FF80180818F3F09F441C0F894E82F4E
:101CC000E295EF70F0E091A18F7021E001C0220F4A
:101CD0008A95EAF7892F822B81A382A12095282358
:101CE00022A37894B3DFADE8B1E031E0F12C2D917F
:101CF0002F3F79F0E22FE295EF70E05EF0E0808117
:101D000090E02F7002C0959587952A95E2F780FFA5
:101D10001BC080E0F82A330F81E0A039B80739F7FB
:101D2000F80180818F3F09F095DF61E0F11001C07B
:101D300060E08E2D8DDFF601EC0FFD1FF082CDB738
:101D4000DEB7E8E00C941120832FE4CF99DFE3EABB
:101D5000F2E083E011928A95E9F7E0EAF2E083E0AD
:101D600011928A95E9F783E03BD060CFA3E0B0E021
:101D7000ECEBFEE00C94F81FFE013196DF0183E0EE
:101D80001D928A95E9F710E00E2FFF2E612F802F0C
:101D90009F2D82DF1F5F1330C9F743E050E0602FB3
:101DA0007F2D80EA92E00E94222021E0892B71F4AD
:101DB00020E043E063EA72E080EA92E012D0182F5C
:101DC00038DF812F2396E5E00C94142089819A81D5
:101DD000AB818093A0029093A102A093A202E9CFCD
:101DE0000895A0E0B0E0E7EFFEE00C94F51F7C0161
:101DF0006B01042FC22F211579F081E080935602E8
:101E00000E94C117809354029093550280E0CDB791
:101E1000DEB7E8E00C941120D0915602D115B1F351
:101E200080915402909155020E945217059770F3C9
:101E300010E0A801B701C6010E942220892B31F0D1
:101E4000A801B701C6010E942F20CD2F1092560283
:101E50008C2FDDCF25CC08950E945B170E94BC1A01
:101E6000F3DB0E94D41A13DC0E94DD1A0E94E01AF0
:101E7000F1DF0E94F61AF6DBF9CF80939C01909374
:101E80009D010895AB0124E630E0BC0188E70E9483
:101E900096189C0181E0232B09F080E00895AB01A6
:101EA00024E630E0BC0188E70E94EF189C0181E045
:101EB000232B09F080E008950F931F939B0104E604
:101EC00010E0AC0160E488E70E944A199C0181E0BF
:101ED000232B09F080E01F910F9108950C94651851
:101EE00008950895FECF0895E6EAF2E0DF0180E06C
:101EF00092E01D920197E9F7E093AA04F093AB04F6
:101F00008FEF9FEF80937C0290937D020895CF9393
:101F1000E8DFE8DF90E280FF90E88093780290931A
:101F20007702DCDF6BE070E089ED90E0B8DF8111D3
:101F300004C0C0E08C2FCF9108958091780265E0B5
:101F400070E081FD26C084ED90E0A9DF811589F362
:101F50006DE070E082EC90E0A2DFC82F811549F3BC
:101F60000E94CD17DC01CB01805A9541AF4FBF4F86
:101F70008093A6049093A704A093A804B093A90407
:101F8000B3DF81E080937B0280937A021092790222
:101F9000D1CF8FEC90E0D9CF2091770236E0839FAC
:101FA000C0011124269F800D911D1124923014F040
:101FB00080E090E08A559D4F8093AA049093AB04F3
:101FC0000895CF93C0917B02C11105C0C0917A02E0
:101FD0008C2FCF910895E1D7DC01CB01805A954138
:101FE000AF4FBF4F8093A6049093A704A093A8047B
:101FF000B093A90480917A028111EACF62E070E087
:1020000080EC90E04CDF811509F381E080937A0247
:10201000DFCFA0E0B0E0EFE0F0E10C94EC1F382E51
:1020200080917C0290917D02892BC1F080917B028E
:102030008115A1F080917902811110C0C2DF00E00A
:1020400010E03801639420917C0230917D022115CB
:10205000310521F0011541F0311006C0CDB7DEB7D2
:10206000E1E10C9408201F5F812F90E04301012ED5
:1020700002C0880C991C0A94E2F7A401422353235E
:10208000452B89F32091780220FD3AC096958795DB
:1020900096958795482F282F912F9295990F907696
:1020A000392F315E842F909306018093090130937C
:1020B000070120930A0167E070E084E091E0E2DE2E
:1020C000811561F220E2129FC00111242091780253
:1020D00020FD1FC060E270E08A559D4FEDDE811546
:1020E00009F4BCCF0F5F8094909480917C02909112
:1020F0007D028821992180937C0290937D02A3CF59
:10210000912F990F990F990F392F395F80E023E0B4
:10211000CACFE7E5F2E020E211922A95E9F7A7E9B4
:10212000B1E063E971E0ED91EB012991BE01422F2D
:10213000480F592F511D2A01F0E0E95AFD4F20E0C8
:1021400030E047E0B42EB21AD62C022E01C0DD0CCE
:102150000A94EAF7E201CA55DD4FE12CF990FD201F
:102160004B2D4E194770C42E50E0AF2C042E01C0E9
:10217000AA0C0A94EAF7519541955109477001C09C
:10218000F6944A95EAF7FA2840814F294083E39470
:102190004E2D483019F72F5F3F4F319628303105CB
:1021A00081F62BE931E02A173B0709F0BCCF60E24A
:1021B00070E087E592E092CFCF93C0917B0280914F
:1021C0007A02C11106C091E08927C82F8C2FCF91C8
:1021D00008958115D9F362E070E08EEB90E05FDE48
:1021E000811103C0C0917A02F1CF10927A02EECF32
:1021F00081E00895FDCF089580917B028115F9F06B
:1022000060E080E0C9DEF6DF80E003DF80917A02E3
:102210008115A9F0C2D62091A6043091A70440915F
:10222000A8045091A904DC01CB01821B930BA40BE1
:10223000B50B8F3F9F4FAF4FBF4708F4BDCF0895F9
:10224000B0C9089580E0F7DC817008958FDD8FEFCD
:1022500096E721E0815090402040E1F700C0000067
:1022600085DDF0DF811511F0EBDFC7C60895EECFF5
:102270000895CF93DF93EB0186319C47F9F466D83C
:102280009D81911591F08A7A91E0811101C090E0D1
:1022900090937E02811539F085E31ED504D980E044
:1022A000DF91CF91089589E2F8CF80917E02811568
:1022B00019F085E328D5F2CF89E2FCCF81E0F0CF99
:1022C000CF93DF93EC01FB018581811509F4C8C030
:1022D0009E0130572332310508F0A8C08EE992E004
:1022E0006AD9FE01E150F047E232F10520F4EF57E0
:1022F000FF4D0C94E51F80919E02816080939E02A9
:102300008FC080919F02886080939F0289C08091D6
:102310009E028260F3CF80919E028460EFCF809115
:102320009E028860EBCF80919F028160EDCF80910B
:102330009F028260E9CF80919E028061DFCF809111
:102340009E028062DBCF80919E028064D7CF0E9484
:102350007E0580919E028068D1CF80919E028C6024
:10236000CDCF80919F028360CFCF80919E028E7FE0
:10237000C5CF80919F02877FC7CF80919E028D7FBE
:10238000BDCF80919E028B7FB9CF80919E02877FC7
:10239000B5CF80919F028E7FB7CF80919F028D7FB6
:1023A000B3CF80919E028F7EA9CF80919E028F7DB8
:1023B000A5CF80919E028F7BA1CF0E947E05809148
:1023C0009E028F779BCF80919E02837F97CF8091D3
:1023D0009F028C7F99CF90919E02892F8B7F92FFD5
:1023E0008460877F92FF886089CF80919F02982FB9
:1023F000909590FB80F990FB81F986CF90919E0299
:10240000892F8F7B96FF806479CF0E947E05909103
:102410009E02892F97FB87F9805870CF81E0CFD833
:102420008EE992E0CAD80E947E0580E0DF91CF91CC
:10243000089580E0F4CF90919E02892F8F7E94FFC3
:1024400080615CCF90919E02892F8E7F90FF81608A
:1024500055CF90919F02892F877F93FF886054CF3B
:1024600081E0E4CF382F25EB3203C001112497FF20
:1024700004C080589109892F089580589F4FFBCF41
:102480008091850280FF0DC06091100170E0660FA1
:10249000771F6038710588F56115710581F1862F08
:1024A000089581FF07C06091100184E0689FB0012A
:1024B0001124EFCF82FF04C06091100188E0F6CFB5
:1024C000909184029115B9F060910F0180911001F3
:1024D000961728F098E0899FB0011124DACF899FE0
:1024E000C001112423E0880F991F2A95E1F770E0BD
:1024F0000E94D21FCECF68E0D2CF8FE7089581E04F
:1025000008958091850280FF0CC060910C0170E0FD
:1025100075956795759567956115710541F1862FDC
:10252000089581FF06C060910C0170E07595679574
:10253000F3CF60910C0182FD0BC090918302911545
:10254000A1F060910B0180910C01961738F0682F73
:1025500070E06038710500F38FE70895899FC0012E
:10256000112470E00E94D21FF4CF61E0D8CF81E047
:102570000895E82FED5CE33198F5F0E0ED55FF4D5F
:102580000C94E51F7DDF819580938902089578DFA3
:10259000FBCF76DF819580938802089571DFFBCFB2
:1025A000B0DF80938A020895ACDF8195FACFA9DF6E
:1025B000819580938B020895A4DFFBCF815D990BF9
:1025C00021E001C0220F8A95EAF780918702822BD1
:1025D00080938702089580918502816080938502AF
:1025E0000895809185028260F9CF80918502846090
:1025F000F5CF409188028D3C59F48091890287FF84
:102600000DC010928902411559F41092840208C03D
:102610008E3C81F48091890218169CF3411581F05B
:1026200080918A0290918B02892B09F056C01092FA
:10263000830208958F3C41F447FFF0CF1092880247
:10264000809189028115E0CF803D19F41416B4F30E
:10265000E5CF90918A02893D29F41916FCF6109273
:102660008A02DCCF8A3D19F497FFD8CFF8CF90913A
:102670008B028B3D29F497FFD1CF10928B02CECFE6
:102680008C3D19F41916CCF3C9CF982F915D983071
:1026900078F4815D990B21E001C0220F8A95EAF759
:1026A000822F809590918702892380938702B6CFED
:1026B0008D3D31F4809185028E7F80938502AECF6F
:1026C0008E3D21F4809185028D7FF7CF8F3D09F0FB
:1026D000A5CF809185028B7FF0CF089552D49C01C5
:1026E0009091880280918902982B21F02093810299
:1026F0003093820290918A0280918B02982B21F074
:1027000020937F023093800286E892E0D9C1E6E808
:10271000F2E086E011928A95E9F710928402109215
:102720008302109285020895FC01828181110EC0FE
:10273000838181110BC08481811108C091E0858162
:10274000811101C090E0892F8170089581E0FCCF54
:10275000A6E0B0E0EEEAF3E10C94F81F86E0E6E8CC
:10276000F2E09E012F5F3F4FD90101900D928A95B3
:10277000E1F7109288021092890210928A02109258
:102780008B028B819C81892B022FF32E811581F086
:10279000809181029091820285D3AC019091840254
:1027A0009115A1F1809111018417150608F43BC021
:1027B0008D819E81892B89F080917F02909180028A
:1027C00071D3AC0190918302911509F45AC08091A4
:1027D0000D018417150608F462C0602F7F2D86E86E
:1027E00092E0C0D2811104C086E892E09DDF8111A1
:1027F00075DF86E0E02FFF2DA6E8B2E001900D9294
:102800008A95E1F72696E5E00C94142020911201B8
:102810008AE0289F900111242417350748F69F5F0E
:102820009093840202C09F3FD1F71B81111551F094
:1028300027DE91E011160CF09FEF899F802D112467
:10284000809388021C81111551F01ADE91E0111657
:102850000CF09FEF899F802D112480938902809135
:102860008802811509F4A4CF10918902111509F489
:102870009FCFF8DD80938802812FF4DD8093890259
:1028800097CF20910E018AE0289F900111242417F0
:10289000350708F0A2CF9F5F9093830202C09F3F4D
:1028A000D1F71D81111551F02CDE91E011160CF0BD
:1028B0009FEF899F802D112480938A028E81182F8B
:1028C000811551F01EDE91E011160CF09FEF899FEB
:1028D000802D112480938B0280918A02811509F446
:1028E0007CCF90918B02192F911509F476CFBADD28
:1028F00080938A02812FB6DD80938B026ECF0F9377
:102900001F93CF93DF93C42FD22FFC0185818115B4
:10291000C9F040938E0235D380938C0290938D0240
:102920008C2F805E883048F481E0C1FD84E0C0FDDA
:10293000880FC2FD82950E946E03DF91CF911F9197
:102940000F91089510918E02141333C080918C0260
:1029500090918D02A7D2883C910558F5CD2FC05E8D
:102960001D17C1F0812F805E883048F481E011FD91
:1029700084E010FD880F12FD82950E947303C83019
:1029800048F481E0D1FD84E0D0FD880FD2FD82952E
:102990000E946E03802F0E94670381E0D1FD84E0D6
:1029A000D0FD880FD2FD8295C83038F60E9473039F
:1029B000C4CF8C2F805E883008F0BFCF81E0C1FD8E
:1029C00084E0C0FD880FC2FD8295F0CF0F93FC011B
:1029D000CB01E851FC47E730F10588F5EA54FF4D9B
:1029E0000C94E51F06E221EE41EE6AE17CE787DF09
:1029F00080E00F91089507E225EE45EE6BE17CE75C
:102A0000F6CF06E221EE40EE68E17CE7F0CF07E288
:102A100025EE44EE69E17CE7EACF06E221EE42EEE4
:102A20006CE17CE7E4CF07E225EE46EE6DE17CE762
:102A3000DECF08E221E045EE6EE17CE7D8CFFB0176
:102A40008581811110928E0281E0D3CF8093930211
:102A5000909394020895EDD1982F81E0913009F080
:102A600080E00895E0919302F0919402309739F05C
:102A70000190F081E02D309711F00995089580E0E4
:102A80000895E0919302F0919402309731F0028022
:102A9000F381E02D309709F009950895E0919302B4
:102AA000F0919402309759F024813581232B39F02D
:102AB00026E0DC012C930480F581E02D0995089532
:102AC000E0919302F0919402309759F0268137817A
:102AD000232B39F022E0DC012C930680F781E02DD6
:102AE00009950895A3E0B0E0E8E7F5E10C94FB1F39
:102AF000209191023091920228173907B1F080930A
:102B0000910290939202E0919302F0919402309797
:102B100061F00084F185E02D309739F023E02983BE
:102B20008A839B83CE01019609952396E2E00C945B
:102B30001720A3E0B0E0EFE9F5E10C94FB1F209132
:102B40008F023091900228173907B1F080938F02DD
:102B500090939002E0919302F0919402309761F08B
:102B60000084F185E02D309739F024E029838A83B1
:102B70009B83CE01019609952396E2E00C941720E1
:102B8000CF93DF93C0910201D091030164DF8115DF
:102B900021F080919E0287FD11C09E012E5F3F4F64
:102BA00096E080E09150F90140812F5F3F4F411145
:102BB0008F5F9111F7CFDF91CF91089520910001A0
:102BC000309101012E5F3F4F9EE1EBCFCF93C82F95
:102BD000811102C080E02EC03EDF811521F080917E
:102BE0009E0287FD0FC08091020190910301FC01BC
:102BF0003296089620812C17F9F03196E817F907DC
:102C0000C9F7E8CF8C2F869586958695C03F10F73B
:102C1000E0910001F0910101E80FF11D228130E007
:102C2000C77081E001C0880FCA95EAF7282381E0C8
:102C3000232B81F2CF91089581E0FCCF9C01FC0110
:102C4000329680E09FEF4081461759F031969F3FC2
:102C500019F4411101C0982F8F5F8630A1F79F3F73
:102C600009F40895290F311D97FD3A95F901628302
:102C70000895FC01329608962191261302C0DF01C7
:102C80001E92E817F907C1F70895262F2695269575
:102C90002695603F60F4820F911DFC01677021E072
:102CA00001C0220F6A95EAF78281822B8283089500
:102CB000262F269526952695603F68F4820F911D54
:102CC000FC019DEF61FD97EF60FF959562FD929588
:102CD0008281892382830895CF93C82FBCDE6C2F15
:102CE000811559F080919E0287FF07C080910001F5
:102CF00090910101CADFCF910895809102019091D6
:102D000003019CDFF8CFCF93C82FA5DE6C2F811570
:102D100059F080919E0287FF07C080910001909139
:102D20000101C6DFCF9108958091020190910301C6
:102D3000A0DFF8CF90DE811571F080919E0287FFB1
:102D40000AC0E0910001F091010132968EE11192EA
:102D50008A95E9F70895E0910201F0910301329616
:102D600086E0F5CFDC01FB0111969C9111978181E2
:102D7000981322C012968C911297811519F09281A6
:102D800089131AC013968C911397811519F09381AA
:102D9000891312C015968C911597811519F095819C
:102DA00089130AC014969C91911521F081E0248129
:102DB000291303C080E001C081E081700895089567
:102DC000FECF08958F5F809316016091130170917B
:102DD00014018091150190911601F2CF83E0809348
:102DE0001601609113017091140180911501909169
:102DF0001601E6CFE7CF089581E080931601609138
:102E00001301709114018091150190911601D8CF92
:102E1000F3CF089591E0811101C090E090931501E6
:102E20006091130170911401809115019091160128
:102E3000C7CF80911501089580931401609113010B
:102E4000709114018091150190911601B9CF809174
:102E5000140108958093130160911301709114017E
:102E60008091150190911601ABCF809113010895C7
:102E700008950895FECF089508950895F9CF08950F
:102E8000CF93FADF0E94B60EF8DFC0E08C2F0E94CD
:102E90001B0E811105C0CF5FC330C1F7CF910895DC
:102EA00081E0FCCFCF93DF93EC016BD08C1B9D0BAB
:102EB000DF91CF91089585B7806885BF85B7806819
:102EC00085BF08951F921FB61F9211248F939F9361
:102ED000AF93BF9380919502811113C08091AC0490
:102EE0009091AD04A091AE04B091AF044196A11DA4
:102EF000B11D8093AC049093AD04A093AE04B09345
:102F0000AF04BF91AF919F918F911F901FBE1F90F3
:102F100018958091B404843031F10E9466021092B9
:102F2000950288E190E020E40FB6F894A89580938C
:102F300060000FBE2093600083B7817F846083BFF1
:102F400083B7816083BF7894889583B78E7F83BF72
:102F50000FB6F894A8958091600088618093600016
:102F6000109260000FBE08950E947E050C946C02C2
:102F700082E084BD93E095BD9AEF97BD80936E008B
:102F800008952FB7F8948091AC049091AD04A0916E
:102F9000AE04B091AF042FBF08952FB7F89460919D
:102FA000AC047091AD048091AE049091AF042FBF3A
:102FB000089578941F921FB61F9211248F939F93A8
:102FC000AF93BF938091AC049091AD04A091AE04F7
:102FD000B091AF040196A11DB11D8093AC049093F4
:102FE000AD04A093AE04B093AF04BF91AF919F9195
:102FF0008F911F901FBE1F90189587E797E78093CA
:1030000000089093010888E19AE00FB6F894A8951B
:10301000809360000FBE90936000FFCF88E19AE03C
:103020000FB6F894A895809360000FBE909360004F
:10303000FFCFEF92FF920F931F93CF93DF93C82F91
:103040008B011092BC0084EA8093BC009ADF7C0163
:103050008091BC0087FF25C08091B900887F8830AF
:1030600029F08091B900887F803161F5C093BB0061
:1030700084E88093BC0085DFEC018091BC0087FF71
:103080001BC02091B900287F80E090E0283181F0BA
:1030900081E090E0203409F480E0919581959109D8
:1030A00007C0C701FFDE0817190790F68EEF9FEFE4
:1030B000CDB7DEB7E6E0B7C7CE01F4DE08171907D3
:1030C000E0F6F4CF8FEF9FEFF3CF1092B9008CE0D2
:1030D0008093B80008950F931F93CF93DF93EB0174
:1030E0008093BB0084E88093BC004BDF8C0180910F
:1030F000BC0087FF10C02091B900287F81E090E0DC
:10310000283209F480E0919581959109DF91CF9162
:103110001F910F910895CF3FDC0749F3C801C2DE2C
:10312000C817D90720F78EEF9FEFF0CF6F927F92ED
:103130009F92AF92BF92CF92DF92EF92FF920F9346
:103140001F93CF93DF93B82EA62E972E6A01890185
:1031500018DF3C010431110558F10F3F100761F1F0
:10316000C80164E170E00AD7F62EE72E6F2D7E2DA0
:103170008B2D5FDFEC01892B11F5EA2CF92CCE0C9D
:10318000DF1CEC14FD0411F0209711F184E9809309
:10319000BC00CE01DF91CF911F910F91FF90EF9076
:1031A000DF90CF90BF90AF909F907F906F900895E9
:1031B000FF24F394E12CDACF85E0F82EFBCF0F3F0C
:1031C0001007A1F2C3016EDE0817190778F6D5CFF4
:1031D000B801F70181917F017EDFEC01D2CF6F92C0
:1031E0007F929F92AF92BF92CF92DF92EF92FF9227
:1031F0000F931F93CF93DF93B82EA62E972E6A01BD
:103200008901BFDE3C010431110558F10F3F100761
:1032100061F1C80164E170E0B1D6F62EE72E6F2DA2
:103220007E2D8B2D06DFEC01892B11F5EA2CF92C74
:10323000CE0CDF1CEC14FD0411F0209711F184E991
:103240008093BC00CE01DF91CF911F910F91FF9031
:10325000EF90DF90CF90BF90AF909F907F906F9056
:103260000895FF24F394E12CDACF85E0F82EFBCF0C
:103270000F3F1007A1F2C30115DE0817190778F6F2
:10328000D5CFF7018491B80126DFEC018FEFE81A62
:10329000F80AD0CFA0E0B0E0EFE4F9E1A0C6B82E84
:1032A000A62E942E852E6901E8016BDE3C010431C7
:1032B000110500F10F3F100709F1C80164E170E04A
:1032C0005DD6F62EE72E6F2D7E2D8B2DB2DE8C0176
:1032D000892BB9F0CF3FDC07B1F3C301E3DDC81799
:1032E000D90788F784E98093BC00C801CDB7DEB761
:1032F000EEE091C6FF24F394E12CE5CF85E0F82EB3
:10330000FBCFBE018A2DE7DE8C01E92CF82CCE0C18
:10331000DF1CEC14FD0431F30115110519F7BE0192
:10332000F70181917F01D7DE8C01F3CF9B01BA01B8
:103330009091B4049430D9F48F708093E9009FEF9A
:103340008091E80085FD06C085ED8A95F1F70000C3
:103350009150B1F78091E80085FF09C040E050E04E
:10336000C901B7D18091E8008E778093E800089575
:1033700043E050E0BC0182E0D9CF46E050E0BC0120
:1033800082E0D4CF40E250E0BC0182E0CFCFCF93C7
:10339000DF93EC014EDD48E050E0BE0181E0C6DF86
:1033A00088E0FE01A6E9B2E001900D928A95E1F76E
:1033B000DF91CF9108958091B304811107C010D39C
:1033C00060D38091E20084608093E20008951092BF
:1033D000B304089511DD81E01DCD6091B00481E05A
:1033E000611101C080E0FACC9091B40481E0943086
:1033F00009F080E06091B004FDCC42E061EC81E036
:103400006BD242E261EC82E067D29091B40481E039
:10341000943009F080E06091B004D4CC8091B6047F
:10342000893081F148F4823009F496C0833009F480
:1034300057C0813041F008958A3009F480C08B3044
:1034400009F468C008958091B504813A09F047C035
:103450008091E800877F8093E8008091B904909183
:10346000BA04892B59F060E080E090E070E07DD1F3
:103470008091E8008B778093E800089568E086E902
:1034800092E0F4CF8091B504813249F58091B9047E
:103490009091BA04029718F58091E800877F809395
:1034A000E8008091E80082FF16C02091F30080912F
:1034B000F200922F029731F48091F100813011F0E7
:1034C000863019F48091F100B7DC8091E8008B77A9
:1034D0008093E80035C28091B4048111E2CF089551
:1034E0008091B504813AD9F78091B9049091BA04DA
:1034F000892BA9F78091E800877F8093E80080916D
:10350000E80080FFFCCF95DC8093F1008091E8001B
:103510008E77DECF8091B504813209F78091B904AE
:103520009091BA04892BD9F68091E800877F809327
:10353000E80006D28091B7046DDC0C947E05809182
:10354000B504813261F68091E800877F8093E800BE
:10355000F7D18091B8047ECC8091B504813A09F00E
:10356000BECF8091E800877F8093E8008091E800DB
:1035700080FFFCCF7ADCC8CF84B7877F84BF0FB6CB
:10358000F894A89580916000886180936000109203
:1035900060000FBE80E890E00FB6F8948093610061
:1035A000909361000FBE34CC1BD26BD2E2EEF0E000
:1035B0008081846080837894C8C487E191E046CAA2
:1035C0008091B404853029F48091B404853011F0E1
:1035D000CBCC08959EDC54DC8115B1F38091B2040C
:1035E000811591F360D00E947E05EECF08959A0177
:1035F0004091BB045091BC0400C0492F50E04330BF
:103600005105D1F078F44130510509F43DC0423004
:10361000510571F48BE390E042E151E0F901408300
:103620005183089541325105E9F04232510519F1B3
:1036300080E090E040E0F2CF482F50E0813061F030
:103640004230510561F0EEE0F1E04115510581F79E
:10365000849190E0AF01E2CFEAEFF0E0F9CFE4EE41
:10366000F0E0F6CF61307105A0F011F789E090E04D
:103670004DE351E0D3CF6130710580F0C9F686EBA0
:1036800090E04FE551E0CACF82E190E04DE451E097
:10369000C5CF89E090E044E251E0C0CF84E490E0FF
:1036A00045E152E0BBCF80E189BD82E189BD09B42B
:1036B00000FEFDCF8091D8008F7D8093D80080914F
:1036C000E00082608093E0008091E00081FDFCCF0B
:1036D0000895AF92BF92CF92DF92EF92FF921F9325
:1036E000CF93DF937C01EB016A0149D1182F81113F
:1036F00022C0C114D10439F0F60180819181C81B28
:10370000D90BE80EF91EA12CB12C2097A1F08091C5
:10371000E80085FD20C08091E8008E778093E80066
:10372000C114D10499F0F601808191818A0D9B1D0D
:103730008083918315E0812FDF91CF911F91FF90BE
:10374000EF90DF90CF90BF90AF90089518D1811582
:10375000F1F2182FF0CFF70181917F018093F100F2
:1037600021978FEFA81AB80AD0CFFC018091BB0433
:103770009091BC048617970720F06115710561F0E0
:10378000CB0140E0009771F441110CC08091E8003A
:1037900082FF36C080E008958091E8008E778093A4
:1037A000E800EECF2091B4042115B1F12530B1F13C
:1037B0002091E80023FD2EC02091E80022FDE6CFF5
:1037C0002091E80020FFDECF4091F3002091F2002D
:1037D000342F009719F02830310558F041E0283097
:1037E000310509F040E02091E8002E772093E800B1
:1037F000C9CF41914093F10001972F5F3F4FE9CF2F
:103800008091B404811541F0853041F08091E80049
:1038100083FFBCCF81E0089582E0089583E008959E
:10382000FC018091BB049091BC048617970720F09F
:103830006115710561F0CB0140E0009771F4411111
:103840000CC08091E80082FF37C080E0089580912D
:10385000E8008E778093E800EECF2091B404211524
:10386000B9F12530B9F12091E80023FD2FC0209156
:10387000E80022FDE6CF2091E80020FFDECF409156
:10388000F3002091F200342F009719F02830310511
:1038900058F041E02830310509F040E02091E8007F
:1038A0002E772093E800C9CF44914093F1003196E0
:1038B00001972F5F3F4FE8CF8091B404811541F00D
:1038C000853041F08091E80083FFBBCF81E008950F
:1038D00082E0089583E00895982F973028F08F7044
:1038E0008093E90081E008959093E900242F762FDA
:1038F00050E0981731F07091EC002091ED0050915C
:10390000F00021FD02C09F5FE8CF3091EB003E7FC9
:103910003093EB003091ED003D7F3093ED0030911E
:10392000EB0031603093EB007093EC002093ED00DE
:103930005093F0002091EE0027FDE5CF80E0089540
:103940008091B50487FF13C08091E80082FF06C014
:103950008091E8008B778093E80008958091B4040B
:103960008111F2CF08958091B4048115D9F380912B
:10397000E80080FFF8CF8091E8008E77ECCF2091AF
:10398000E4003091E50095E6A9012091EC00822F3A
:10399000817020FF06C08091E80080FF06C080E0B3
:1039A00008952091E80022FD1AC08091B404811589
:1039B00089F0853089F08091EB0085FD0FC0209162
:1039C000E4003091E50042175307F9F29150E1F617
:1039D00084E0089582E0089583E0089581E00895E9
:1039E0005FD066D0E0EEF0E0808181608083E8ED1A
:1039F00080818F77808319BCA7EDB0E08C918E7F9A
:103A00008C9380818F7E80831092B3040895CF932E
:103A1000DF9346D04DD0C8EDD0E088818F77888382
:103A200088818068888388818F7D888319BC109203
:103A3000B4041092B0041092B2041092B104E0EEFB
:103A4000F0E080818B7F808388818160888342E081
:103A500060E080E041DFE1EEF0E080818E7F8083F6
:103A6000E2EE808181608083808188608083E0EEE7
:103A700080818E7F8083888180618883DF91CF9170
:103A80000895E8EDF0E080818F7E8083E7ED80810E
:103A90008160808384E082BF81E08093B304B7CFEC
:103AA000E8EDF0E080818E7F80831092E20008953F
:103AB0001092DA001092E10008951F920F920FB653
:103AC0000F9211242F933F934F935F936F937F93A4
:103AD0008F939F93AF93BF93EF93FF938091E100F8
:103AE00082FF0AC08091E20082FF06C08091E1005F
:103AF0008B7F8093E10028D28091DA0080FF18C08C
:103B00008091D80080FF14C08091DA008E7F80936E
:103B1000DA008091D90080FF8FC080E189BD82E109
:103B200089BD09B400FEFDCF81E08093B40443DC7D
:103B30008091E10080FF18C08091E20080FF14C0F6
:103B40008091E2008E7F8093E2008091E2008061AC
:103B50008093E2008091D80080628093D80019BCE5
:103B600085E08093B40439DC8091E10084FF28C0B3
:103B70008091E20084FF24C080E189BD82E189BD9B
:103B800009B400FEFDCF8091D8008F7D8093D800CE
:103B90008091E1008F7E8093E1008091E2008F7E32
:103BA0008093E2008091E20081608093E200809146
:103BB000B004811509F445C084E08093B40414DC9A
:103BC0008091E10083FF27C08091E20083FF23C042
:103BD0008091E100877F8093E10082E08093B404CC
:103BE0001092B0048091E1008E7F8093E10080917B
:103BF000E2008E7F8093E2008091E20080618093FA
:103C0000E20042E060E080E067DE8091F0008860E2
:103C10008093F000DFDBFF91EF91BF91AF919F9117
:103C20008F917F916F915F914F913F912F910F9065
:103C30000FBE0F901F90189519BC1092B404C7DBEB
:103C400077CF8091E30087FF02C083E0B6CF81E0A9
:103C5000B4CF1F920F920FB60F9211241F932F9380
:103C60003F934F935F936F937F938F939F93AF9304
:103C7000BF93CF93DF93EF93FF93E9EEF0E0808162
:103C80001091EC008F7010FB112717F9182B108280
:103C9000C0EFD0E08881877F888378941CD0E9EEDC
:103CA000F0E010828881886088831F701083FF9104
:103CB000EF91DF91CF91BF91AF919F918F917F91C4
:103CC0006F915F914F913F912F911F910F900FBE78
:103CD0000F901F901895AAE2B0E0E0E7FEE18AC1DC
:103CE00085EB94E0FC0101962091F100208324E013
:103CF0008D3B9207B9F792DB8091E80083FF37C0D4
:103D00008091B5049091B6049A3088F5E92FF0E0DF
:103D1000E354FF4D5AC1803889F0823841F58091D3
:103D2000B9048F70873018F58093E9008091EB001B
:103D300085FB882780F91092E90006C08091B204C3
:103D4000880F9091B104892B9091E800977F909310
:103D5000E8008093F1001092F1008091E8008E77E6
:103D600022C0811115C08091B704813001F180918A
:103D7000E80083FF0AC08091E800877F8093E80015
:103D80008091EB0080628093EB00AA96E3E04EC145
:103D9000823069F78091B704811579F01092E900BB
:103DA0008091E800877F8093E800CADDE0CF933000
:103DB00009F080E08093B204F1CF8091B9048F7054
:103DC000282F2150263098F68093E9002091EB00AF
:103DD00020FFE4CF933031F48091EB008062809338
:103DE000EB00DCCF9091EB0090619093EB0021E031
:103DF00001C0220F8A95EAF72093EA001092EA00A8
:103E00008091EB008860EBCF8111B1CF8091B70436
:103E10008F77182F8091E3008078812B8093E300C7
:103E20008091E800877F8093E8008ADD8091E80038
:103E300080FFFCCF8091E30080688093E30083E003
:103E4000111101C082E08093B40491CF8058823078
:103E500008F08DCF8091B7049091B8048C3D23E099
:103E6000920789F583E08A838AE289834FB7F894C1
:103E7000DE01139620E03EE051E2E32FF0E05093A4
:103E80005700849120FF03C082958F703F5F8F7031
:103E90008A30B8F0895C8D931D922F5F243169F7C9
:103EA0004FBF8091E800877F8093E8006AE270E06E
:103EB000CE0101965ADC8091E8008B778093E80070
:103EC00056CF805DE8CF6091B9047091BA049E012D
:103ED0002F5F3F4FA9018BDBBC01892B09F447CF32
:103EE0009091E800977F9093E80089819A8198DC0F
:103EF000E2CF803809F03BCF8091E800877F809344
:103F0000E8008091B0048093F10027CF81112FCF7A
:103F10009091B704923008F02ACF8091E800877F13
:103F20008093E8009093B0040BDD8091B00481157C
:103F300029F084E08093B40460DA19CF8091E30023
:103F400087FDF7CF81E0F6CF0895CF938091B40439
:103F5000811591F08091E900C091EC008F70C0FB59
:103F6000CC27C7F9C82B1092E9008091E80083FDA7
:103F7000B2DECF70C093E900CF910895AA1BBB1B9E
:103F800051E107C0AA1FBB1FA617B70710F0A61B59
:103F9000B70B881F991F5A95A9F780959095BC017A
:103FA000CD01089597FB072E16F4009406D077FDF7
:103FB00008D0E4DF07FC05D03EF4909581959F4F33
:103FC0000895709561957F4F0895EE0FFF1F05903E
:103FD000F491E02D09942F923F924F925F926F924D
:103FE0007F928F929F92AF92BF92CF92DF92EF9289
:103FF000FF920F931F93CF93DF93CDB7DEB7CA1B0A
:10400000DB0B0FB6F894DEBF0FBECDBF09942A8834
:10401000398848885F846E847D848C849B84AA84DC
:10402000B984C884DF80EE80FD800C811B81AA8169
:10403000B981CE0FD11D0FB6F894DEBF0FBECDBF34
:10404000ED010895FB01DC0104C08D910190801900
:1040500021F441505040C8F7881B990B0895FB018B
:10406000DC0102C001900D9241505040D8F70895F4
:10407000F999FECF92BD81BDF89A992780B5089530
:10408000A8E1B0E042E050E020C0262FF999FECF31
:1040900092BD81BDF89A019700B4021639F01FBA9B
:1040A00020BD0FB6F894FA9AF99A0FBE08950396B8
:1040B000272FECDFEADF252FE9DF242FE7CF01965A
:1040C000272FE4DFE2CFDC01CB01FC01F999FECF21
:1040D00006C0F2BDE1BDF89A319600B40D92415090
:1040E0005040B8F70895F894FFCFB303B303EA0341
:1040F000EA0341045D04DB03DB036104D304E00451
:10410000E004B5112212BD1187118B11C1118F115D
:10411000C511D1119B111B129F11D511A311D911DA
:10412000FE11A711DD110512AD11E311EB11931171
:10413000C9119711CD11B111E711F5110E12191214
:104140008111B9112912C212C712C912CE12DE1280
:10415000DE12DE12DE12DE12DE12DE12DE12D012ED
:10416000D412D712DC12EB12F112F5120115071559
:10417000F214FB140D15131519158B1EB11EB71E65
:0E418000B11EB71E041F261FB71E791F861F13
:10418E001C023C020021007F220003280850011E61
:10419E000A1401000001002717C719C219BD19B86A
:1041AE0019E200E900EA00B500B600B700CD0083C1
:1041BE0001CC008A019201940121022302240225DE
:1041CE0002260227022A02B300B4006F0070009F7D
:1041DE0001CB019F02A002E200E900EA00B500B6A1
:1041EE0000B700CD008301CC008A01920194012119
:1041FE0002230224022502260227022A02B300B459
:10420E00006F0070009F01CB019F02A00294669781
:0C421E00C6343500081018181008000005
:00000001FF
